{
  "contractName": "AAVEDeFi",
  "abi": [
    {
      "inputs": [],
      "stateMutability": "nonpayable",
      "type": "constructor"
    },
    {
      "anonymous": false,
      "inputs": [
        {
          "indexed": false,
          "internalType": "uint256",
          "name": "ethAmountDeposited",
          "type": "uint256"
        },
        {
          "indexed": false,
          "internalType": "uint256",
          "name": "totalETHDeposits",
          "type": "uint256"
        },
        {
          "indexed": false,
          "internalType": "uint256",
          "name": "priceDAI",
          "type": "uint256"
        },
        {
          "indexed": false,
          "internalType": "uint256",
          "name": "safeMaxDAIBorrow",
          "type": "uint256"
        },
        {
          "indexed": false,
          "internalType": "uint256",
          "name": "totalDAIBorrows",
          "type": "uint256"
        }
      ],
      "name": "DepositBorrow",
      "type": "event"
    },
    {
      "inputs": [],
      "name": "daiEthprice",
      "outputs": [
        {
          "internalType": "uint256",
          "name": "",
          "type": "uint256"
        }
      ],
      "stateMutability": "view",
      "type": "function",
      "constant": true
    },
    {
      "inputs": [],
      "name": "lendingPool",
      "outputs": [
        {
          "internalType": "contract ILendingPool",
          "name": "",
          "type": "address"
        }
      ],
      "stateMutability": "view",
      "type": "function",
      "constant": true
    },
    {
      "inputs": [],
      "name": "name",
      "outputs": [
        {
          "internalType": "string",
          "name": "",
          "type": "string"
        }
      ],
      "stateMutability": "view",
      "type": "function",
      "constant": true
    },
    {
      "inputs": [],
      "name": "priceOracle",
      "outputs": [
        {
          "internalType": "contract IPriceOracle",
          "name": "",
          "type": "address"
        }
      ],
      "stateMutability": "view",
      "type": "function",
      "constant": true
    },
    {
      "inputs": [],
      "name": "provider",
      "outputs": [
        {
          "internalType": "contract ILendingPoolAddressesProvider",
          "name": "",
          "type": "address"
        }
      ],
      "stateMutability": "view",
      "type": "function",
      "constant": true
    },
    {
      "inputs": [
        {
          "internalType": "address",
          "name": "",
          "type": "address"
        }
      ],
      "name": "totalDAIBorrows",
      "outputs": [
        {
          "internalType": "uint256",
          "name": "",
          "type": "uint256"
        }
      ],
      "stateMutability": "view",
      "type": "function",
      "constant": true
    },
    {
      "inputs": [
        {
          "internalType": "address",
          "name": "",
          "type": "address"
        }
      ],
      "name": "totalETHDeposits",
      "outputs": [
        {
          "internalType": "uint256",
          "name": "",
          "type": "uint256"
        }
      ],
      "stateMutability": "view",
      "type": "function",
      "constant": true
    },
    {
      "inputs": [],
      "name": "wethGateway",
      "outputs": [
        {
          "internalType": "contract IWETHGateway",
          "name": "",
          "type": "address"
        }
      ],
      "stateMutability": "view",
      "type": "function",
      "constant": true
    },
    {
      "inputs": [
        {
          "internalType": "uint256",
          "name": "safeMaxDAIBorrow",
          "type": "uint256"
        }
      ],
      "name": "borrowDAIAgainstETH",
      "outputs": [],
      "stateMutability": "payable",
      "type": "function",
      "payable": true
    }
  ],
  "bytecode": "0x60806040526040518060400160405280600981526020017f4141564520446546690000000000000000000000000000000000000000000000815250600090805190602001906200005192919062000356565b503480156200005f57600080fd5b5073b53c1a33016b2dc2ff3653530bff1848a515c8c5600360006101000a81548173ffffffffffffffffffffffffffffffffffffffff021916908373ffffffffffffffffffffffffffffffffffffffff160217905550600360009054906101000a900473ffffffffffffffffffffffffffffffffffffffff1673ffffffffffffffffffffffffffffffffffffffff16630261bf8b6040518163ffffffff1660e01b815260040160206040518083038186803b1580156200011e57600080fd5b505afa15801562000133573d6000803e3d6000fd5b505050506040513d601f19601f820116820180604052508101906200015991906200041d565b600760006101000a81548173ffffffffffffffffffffffffffffffffffffffff021916908373ffffffffffffffffffffffffffffffffffffffff160217905550600760009054906101000a900473ffffffffffffffffffffffffffffffffffffffff16600460006101000a81548173ffffffffffffffffffffffffffffffffffffffff021916908373ffffffffffffffffffffffffffffffffffffffff16021790555073cc9a0b7c43dc2a5f023bb9b738e45b0ef6b06e04600560006101000a81548173ffffffffffffffffffffffffffffffffffffffff021916908373ffffffffffffffffffffffffffffffffffffffff16021790555073a50ba011c48153de246e5192c8f9258a2ba79ca9600660006101000a81548173ffffffffffffffffffffffffffffffffffffffff021916908373ffffffffffffffffffffffffffffffffffffffff160217905550736b175474e89094c44da98b954eedeac495271d0f600860006101000a81548173ffffffffffffffffffffffffffffffffffffffff021916908373ffffffffffffffffffffffffffffffffffffffff16021790555073030ba81f1c18d280636f32af80b9aad02cf0854e600960006101000a81548173ffffffffffffffffffffffffffffffffffffffff021916908373ffffffffffffffffffffffffffffffffffffffff160217905550620004fc565b82805462000364906200047d565b90600052602060002090601f016020900481019282620003885760008555620003d4565b82601f10620003a357805160ff1916838001178555620003d4565b82800160010185558215620003d4579182015b82811115620003d3578251825591602001919060010190620003b6565b5b509050620003e39190620003e7565b5090565b5b8082111562000402576000816000905550600101620003e8565b5090565b6000815190506200041781620004e2565b92915050565b6000602082840312156200043057600080fd5b6000620004408482850162000406565b91505092915050565b600062000456826200045d565b9050919050565b600073ffffffffffffffffffffffffffffffffffffffff82169050919050565b600060028204905060018216806200049657607f821691505b60208210811415620004ad57620004ac620004b3565b5b50919050565b7f4e487b7100000000000000000000000000000000000000000000000000000000600052602260045260246000fd5b620004ed8162000449565b8114620004f957600080fd5b50565b610eaf806200050c6000396000f3fe6080604052600436106100865760003560e01c8063a59a997311610059578063a59a997314610128578063c49d0ef014610153578063c5e10eef14610190578063d65745ae146101bb578063e9d106a9146101f857610086565b806306fdde031461008b578063085d4883146100b65780632630c12f146100e15780634f1b1ec91461010c575b600080fd5b34801561009757600080fd5b506100a0610223565b6040516100ad9190610b78565b60405180910390f35b3480156100c257600080fd5b506100cb6102b1565b6040516100d89190610b0c565b60405180910390f35b3480156100ed57600080fd5b506100f66102d7565b6040516101039190610b42565b60405180910390f35b6101266004803603810190610121919061094a565b6102fd565b005b34801561013457600080fd5b5061013d610822565b60405161014a9190610b27565b60405180910390f35b34801561015f57600080fd5b5061017a600480360381019061017591906108f8565b610848565b6040516101879190610b9a565b60405180910390f35b34801561019c57600080fd5b506101a5610860565b6040516101b29190610b5d565b60405180910390f35b3480156101c757600080fd5b506101e260048036038101906101dd91906108f8565b610886565b6040516101ef9190610b9a565b60405180910390f35b34801561020457600080fd5b5061020d61089e565b60405161021a9190610b9a565b60405180910390f35b6000805461023090610d93565b80601f016020809104026020016040519081016040528092919081815260200182805461025c90610d93565b80156102a95780601f1061027e576101008083540402835291602001916102a9565b820191906000526020600020905b81548152906001019060200180831161028c57829003601f168201915b505050505081565b600360009054906101000a900473ffffffffffffffffffffffffffffffffffffffff1681565b600660009054906101000a900473ffffffffffffffffffffffffffffffffffffffff1681565b34600160003373ffffffffffffffffffffffffffffffffffffffff1673ffffffffffffffffffffffffffffffffffffffff168152602001908152602001600020546103489190610c24565b600160003373ffffffffffffffffffffffffffffffffffffffff1673ffffffffffffffffffffffffffffffffffffffff16815260200190815260200160002081905550600080600290506000309050600560009054906101000a900473ffffffffffffffffffffffffffffffffffffffff1673ffffffffffffffffffffffffffffffffffffffff1663474cf53d34600760009054906101000a900473ffffffffffffffffffffffffffffffffffffffff1684876040518563ffffffff1660e01b815260040161041993929190610a59565b6000604051808303818588803b15801561043257600080fd5b505af1158015610446573d6000803e3d6000fd5b50505050506000600660009054906101000a900473ffffffffffffffffffffffffffffffffffffffff1673ffffffffffffffffffffffffffffffffffffffff1663b3596f07600860009054906101000a900473ffffffffffffffffffffffffffffffffffffffff166040518263ffffffff1660e01b81526004016104ca9190610a3e565b60206040518083038186803b1580156104e257600080fd5b505afa1580156104f6573d6000803e3d6000fd5b505050506040513d601f19601f8201168201806040525081019061051a9190610973565b90506000811415610554577f4e487b7100000000000000000000000000000000000000000000000000000000600052600160045260246000fd5b80600a81905550600460009054906101000a900473ffffffffffffffffffffffffffffffffffffffff1673ffffffffffffffffffffffffffffffffffffffff1663a415bcad600860009054906101000a900473ffffffffffffffffffffffffffffffffffffffff16878688876040518663ffffffff1660e01b81526004016105e0959493929190610ab9565b600060405180830381600087803b1580156105fa57600080fd5b505af115801561060e573d6000803e3d6000fd5b5050505084600260003373ffffffffffffffffffffffffffffffffffffffff1673ffffffffffffffffffffffffffffffffffffffff1681526020019081526020016000205461065d9190610c24565b600260003373ffffffffffffffffffffffffffffffffffffffff1673ffffffffffffffffffffffffffffffffffffffff168152602001908152602001600020819055506000600860009054906101000a900473ffffffffffffffffffffffffffffffffffffffff1690508073ffffffffffffffffffffffffffffffffffffffff1663a9059cbb33886040518363ffffffff1660e01b8152600401610702929190610a90565b602060405180830381600087803b15801561071c57600080fd5b505af1158015610730573d6000803e3d6000fd5b505050506040513d601f19601f820116820180604052508101906107549190610921565b61075d57600080fd5b7f867b23624b4dbceb1fa82a503cb5900610bd95b713d95683a52603a18120d97c34600160003373ffffffffffffffffffffffffffffffffffffffff1673ffffffffffffffffffffffffffffffffffffffff168152602001908152602001600020548489600260003373ffffffffffffffffffffffffffffffffffffffff1673ffffffffffffffffffffffffffffffffffffffff16815260200190815260200160002054604051610812959493929190610bb5565b60405180910390a1505050505050565b600460009054906101000a900473ffffffffffffffffffffffffffffffffffffffff1681565b60016020528060005260406000206000915090505481565b600560009054906101000a900473ffffffffffffffffffffffffffffffffffffffff1681565b60026020528060005260406000206000915090505481565b600a5481565b6000813590506108b381610e34565b92915050565b6000815190506108c881610e4b565b92915050565b6000813590506108dd81610e62565b92915050565b6000815190506108f281610e62565b92915050565b60006020828403121561090a57600080fd5b6000610918848285016108a4565b91505092915050565b60006020828403121561093357600080fd5b6000610941848285016108b9565b91505092915050565b60006020828403121561095c57600080fd5b600061096a848285016108ce565b91505092915050565b60006020828403121561098557600080fd5b6000610993848285016108e3565b91505092915050565b6109a581610c7a565b82525050565b6109b481610cd0565b82525050565b6109c381610cf4565b82525050565b6109d281610d18565b82525050565b6109e181610d3c565b82525050565b60006109f282610c08565b6109fc8185610c13565b9350610a0c818560208601610d60565b610a1581610e23565b840191505092915050565b610a2981610c98565b82525050565b610a3881610cc6565b82525050565b6000602082019050610a53600083018461099c565b92915050565b6000606082019050610a6e600083018661099c565b610a7b602083018561099c565b610a886040830184610a20565b949350505050565b6000604082019050610aa5600083018561099c565b610ab26020830184610a2f565b9392505050565b600060a082019050610ace600083018861099c565b610adb6020830187610a2f565b610ae86040830186610a2f565b610af56060830185610a20565b610b02608083018461099c565b9695505050505050565b6000602082019050610b2160008301846109ab565b92915050565b6000602082019050610b3c60008301846109ba565b92915050565b6000602082019050610b5760008301846109c9565b92915050565b6000602082019050610b7260008301846109d8565b92915050565b60006020820190508181036000830152610b9281846109e7565b905092915050565b6000602082019050610baf6000830184610a2f565b92915050565b600060a082019050610bca6000830188610a2f565b610bd76020830187610a2f565b610be46040830186610a2f565b610bf16060830185610a2f565b610bfe6080830184610a2f565b9695505050505050565b600081519050919050565b600082825260208201905092915050565b6000610c2f82610cc6565b9150610c3a83610cc6565b9250827fffffffffffffffffffffffffffffffffffffffffffffffffffffffffffffffff03821115610c6f57610c6e610dc5565b5b828201905092915050565b6000610c8582610ca6565b9050919050565b60008115159050919050565b600061ffff82169050919050565b600073ffffffffffffffffffffffffffffffffffffffff82169050919050565b6000819050919050565b6000610cdb82610ce2565b9050919050565b6000610ced82610ca6565b9050919050565b6000610cff82610d06565b9050919050565b6000610d1182610ca6565b9050919050565b6000610d2382610d2a565b9050919050565b6000610d3582610ca6565b9050919050565b6000610d4782610d4e565b9050919050565b6000610d5982610ca6565b9050919050565b60005b83811015610d7e578082015181840152602081019050610d63565b83811115610d8d576000848401525b50505050565b60006002820490506001821680610dab57607f821691505b60208210811415610dbf57610dbe610df4565b5b50919050565b7f4e487b7100000000000000000000000000000000000000000000000000000000600052601160045260246000fd5b7f4e487b7100000000000000000000000000000000000000000000000000000000600052602260045260246000fd5b6000601f19601f8301169050919050565b610e3d81610c7a565b8114610e4857600080fd5b50565b610e5481610c8c565b8114610e5f57600080fd5b50565b610e6b81610cc6565b8114610e7657600080fd5b5056fea26469706673582212200baf650a6cc7ffbada1a10a5933eed44dc00950a88ff9b147f95eb349b9af8ff64736f6c63430008040033",
  "immutableReferences": {},
  "source": "// SPDX-License-Identifier: MIT\npragma solidity ^0.8.4;\n\nimport '@openzeppelin/contracts/token/ERC20/IERC20.sol';\nimport './ILendingPoolAddressesProvider.sol';\nimport './ILendingPool.sol';\nimport './IWETHGateway.sol';\nimport './IPriceOracle.sol';\n\ncontract AAVEDeFi {\n    string public name = \"AAVE DeFi\";\n\n    mapping(address => uint256) public totalETHDeposits;\n    mapping(address => uint256) public totalDAIBorrows;\n\n    ILendingPoolAddressesProvider public provider;\n    ILendingPool public lendingPool;\n    IWETHGateway public wethGateway;\n    IPriceOracle public priceOracle;\n\n    address addressLendingPool;\n    address daiTokenAddress;\n    address aWETHTokenAddress;\n\n    uint256 public daiEthprice;\n\n     /// @notice DepositBorrow event emitted on success\n    event DepositBorrow(\n        uint256 ethAmountDeposited, \n        uint256 totalETHDeposits,\n        uint256 priceDAI, \n        uint256 safeMaxDAIBorrow, \n        uint256 totalDAIBorrows\n    );\n\n    constructor() {\n        provider = ILendingPoolAddressesProvider(0xB53C1a33016B2DC2fF3653530bfF1848a515c8c5);\n        addressLendingPool = provider.getLendingPool();\n        lendingPool = ILendingPool(addressLendingPool);\n\n        wethGateway = IWETHGateway(0xcc9a0B7c43DC2a5F023Bb9b738E45B0Ef6B06E04);\n        \n        priceOracle = IPriceOracle(0xA50ba011c48153De246E5192C8f9258A2ba79Ca9);\n\n        daiTokenAddress = 0x6B175474E89094C44Da98b954EedeAC495271d0F;\n        aWETHTokenAddress = 0x030bA81f1c18d280636F32af80b9AAd02Cf0854e;\n    }\n\n    /// @notice Function to deposit ETH collateral into Aave and immediately borrow maximum safe amount of DAI  \n    /// @dev DepositBorrow event emitted if successfully borrows \n    function borrowDAIAgainstETH(uint safeMaxDAIBorrow) external payable {\n        totalETHDeposits[msg.sender] = totalETHDeposits[msg.sender] + msg.value;\n        // input variables\n        uint16 referralCode = 0; \n        uint256 variableRate = 2; \n        address onBehalfOf = address(this);\n\n        // Deposit the ETH sent with msg.value transfering aWETH to onBehalfOf \n        wethGateway.depositETH{value: msg.value}(addressLendingPool, onBehalfOf, referralCode);\n\n        // Use Oracle to DAI/ETH \n        uint priceDAI = priceOracle.getAssetPrice(daiTokenAddress);\n        assert(priceDAI != 0);\n        daiEthprice = priceDAI;\n\n        // Borrow the safeMaxDAIBorrow amount from protocol(calculated in frontend)\n        lendingPool.borrow(daiTokenAddress, safeMaxDAIBorrow, variableRate, referralCode, onBehalfOf);\n        totalDAIBorrows[msg.sender] = totalDAIBorrows[msg.sender] + safeMaxDAIBorrow;\n\n        IERC20 daiToken = IERC20(daiTokenAddress);\n        require(daiToken.transfer(msg.sender, safeMaxDAIBorrow));\n\n        emit DepositBorrow(\n            msg.value, \n            totalETHDeposits[msg.sender],\n            priceDAI, \n            safeMaxDAIBorrow, \n            totalDAIBorrows[msg.sender]\n        );\n    } \n\n\n}",
  "sourcePath": "/Users/doriandruidu/code/dapp-univ-challenge/src/contracts/AAVEDeFi.sol",
  "compiler": {
    "name": "solc",
    "version": "0.8.4+commit.c7e474f2.Emscripten.clang"
  },
  "schemaVersion": "3.4.16",
  "updatedAt": "2024-04-12T12:46:05.560Z",
  "networkType": "ethereum",
  "devdoc": {
    "kind": "dev",
    "methods": {
      "borrowDAIAgainstETH(uint256)": {
        "details": "DepositBorrow event emitted if successfully borrows "
      }
    },
    "version": 1
  },
  "userdoc": {
    "events": {
      "DepositBorrow(uint256,uint256,uint256,uint256,uint256)": {
        "notice": "DepositBorrow event emitted on success"
      }
    },
    "kind": "user",
    "methods": {
      "borrowDAIAgainstETH(uint256)": {
        "notice": "Function to deposit ETH collateral into Aave and immediately borrow maximum safe amount of DAI  "
      }
    },
    "version": 1
  }
}