{
  "contractName": "BorrowAAVE",
  "abi": [
    {
      "inputs": [],
      "stateMutability": "nonpayable",
      "type": "constructor"
    },
    {
      "anonymous": false,
      "inputs": [
        {
          "indexed": false,
          "internalType": "uint256",
          "name": "ethAmountDeposited",
          "type": "uint256"
        },
        {
          "indexed": false,
          "internalType": "uint256",
          "name": "totalETHDeposits",
          "type": "uint256"
        },
        {
          "indexed": false,
          "internalType": "uint256",
          "name": "priceDAI",
          "type": "uint256"
        },
        {
          "indexed": false,
          "internalType": "uint256",
          "name": "safeMaxDAIBorrow",
          "type": "uint256"
        },
        {
          "indexed": false,
          "internalType": "uint256",
          "name": "totalDAIBorrows",
          "type": "uint256"
        }
      ],
      "name": "DepositBorrow",
      "type": "event"
    },
    {
      "inputs": [],
      "name": "lendingPool",
      "outputs": [
        {
          "internalType": "contract ILendingPool",
          "name": "",
          "type": "address"
        }
      ],
      "stateMutability": "view",
      "type": "function",
      "constant": true
    },
    {
      "inputs": [],
      "name": "name",
      "outputs": [
        {
          "internalType": "string",
          "name": "",
          "type": "string"
        }
      ],
      "stateMutability": "view",
      "type": "function",
      "constant": true
    },
    {
      "inputs": [],
      "name": "priceOracle",
      "outputs": [
        {
          "internalType": "contract IPriceOracle",
          "name": "",
          "type": "address"
        }
      ],
      "stateMutability": "view",
      "type": "function",
      "constant": true
    },
    {
      "inputs": [],
      "name": "provider",
      "outputs": [
        {
          "internalType": "contract ILendingPoolAddressesProvider",
          "name": "",
          "type": "address"
        }
      ],
      "stateMutability": "view",
      "type": "function",
      "constant": true
    },
    {
      "inputs": [
        {
          "internalType": "address",
          "name": "",
          "type": "address"
        }
      ],
      "name": "totalDAIBorrows",
      "outputs": [
        {
          "internalType": "uint256",
          "name": "",
          "type": "uint256"
        }
      ],
      "stateMutability": "view",
      "type": "function",
      "constant": true
    },
    {
      "inputs": [
        {
          "internalType": "address",
          "name": "",
          "type": "address"
        }
      ],
      "name": "totalETHDeposits",
      "outputs": [
        {
          "internalType": "uint256",
          "name": "",
          "type": "uint256"
        }
      ],
      "stateMutability": "view",
      "type": "function",
      "constant": true
    },
    {
      "inputs": [],
      "name": "wethGateway",
      "outputs": [
        {
          "internalType": "contract IWETHGateway",
          "name": "",
          "type": "address"
        }
      ],
      "stateMutability": "view",
      "type": "function",
      "constant": true
    },
    {
      "inputs": [
        {
          "internalType": "uint256",
          "name": "safeMaxDAIBorrow",
          "type": "uint256"
        }
      ],
      "name": "borrowDAIAgainstETH",
      "outputs": [],
      "stateMutability": "payable",
      "type": "function",
      "payable": true
    }
  ],
  "bytecode": "0x60806040526040518060400160405280600b81526020017f426f72726f772041415645000000000000000000000000000000000000000000815250600090805190602001906200005192919062000356565b503480156200005f57600080fd5b5073b53c1a33016b2dc2ff3653530bff1848a515c8c5600360006101000a81548173ffffffffffffffffffffffffffffffffffffffff021916908373ffffffffffffffffffffffffffffffffffffffff160217905550600360009054906101000a900473ffffffffffffffffffffffffffffffffffffffff1673ffffffffffffffffffffffffffffffffffffffff16630261bf8b6040518163ffffffff1660e01b815260040160206040518083038186803b1580156200011e57600080fd5b505afa15801562000133573d6000803e3d6000fd5b505050506040513d601f19601f820116820180604052508101906200015991906200041d565b600760006101000a81548173ffffffffffffffffffffffffffffffffffffffff021916908373ffffffffffffffffffffffffffffffffffffffff160217905550600760009054906101000a900473ffffffffffffffffffffffffffffffffffffffff16600460006101000a81548173ffffffffffffffffffffffffffffffffffffffff021916908373ffffffffffffffffffffffffffffffffffffffff16021790555073cc9a0b7c43dc2a5f023bb9b738e45b0ef6b06e04600560006101000a81548173ffffffffffffffffffffffffffffffffffffffff021916908373ffffffffffffffffffffffffffffffffffffffff16021790555073a50ba011c48153de246e5192c8f9258a2ba79ca9600660006101000a81548173ffffffffffffffffffffffffffffffffffffffff021916908373ffffffffffffffffffffffffffffffffffffffff160217905550736b175474e89094c44da98b954eedeac495271d0f600860006101000a81548173ffffffffffffffffffffffffffffffffffffffff021916908373ffffffffffffffffffffffffffffffffffffffff16021790555073030ba81f1c18d280636f32af80b9aad02cf0854e600960006101000a81548173ffffffffffffffffffffffffffffffffffffffff021916908373ffffffffffffffffffffffffffffffffffffffff160217905550620004fc565b82805462000364906200047d565b90600052602060002090601f016020900481019282620003885760008555620003d4565b82601f10620003a357805160ff1916838001178555620003d4565b82800160010185558215620003d4579182015b82811115620003d3578251825591602001919060010190620003b6565b5b509050620003e39190620003e7565b5090565b5b8082111562000402576000816000905550600101620003e8565b5090565b6000815190506200041781620004e2565b92915050565b6000602082840312156200043057600080fd5b6000620004408482850162000406565b91505092915050565b600062000456826200045d565b9050919050565b600073ffffffffffffffffffffffffffffffffffffffff82169050919050565b600060028204905060018216806200049657607f821691505b60208210811415620004ad57620004ac620004b3565b5b50919050565b7f4e487b7100000000000000000000000000000000000000000000000000000000600052602260045260246000fd5b620004ed8162000449565b8114620004f957600080fd5b50565b610e6c806200050c6000396000f3fe60806040526004361061007b5760003560e01c8063a59a99731161004e578063a59a99731461011d578063c49d0ef014610148578063c5e10eef14610185578063d65745ae146101b05761007b565b806306fdde0314610080578063085d4883146100ab5780632630c12f146100d65780634f1b1ec914610101575b600080fd5b34801561008c57600080fd5b506100956101ed565b6040516100a29190610b35565b60405180910390f35b3480156100b757600080fd5b506100c061027b565b6040516100cd9190610ac9565b60405180910390f35b3480156100e257600080fd5b506100eb6102a1565b6040516100f89190610aff565b60405180910390f35b61011b60048036038101906101169190610907565b6102c7565b005b34801561012957600080fd5b506101326107e5565b60405161013f9190610ae4565b60405180910390f35b34801561015457600080fd5b5061016f600480360381019061016a91906108b5565b61080b565b60405161017c9190610b57565b60405180910390f35b34801561019157600080fd5b5061019a610823565b6040516101a79190610b1a565b60405180910390f35b3480156101bc57600080fd5b506101d760048036038101906101d291906108b5565b610849565b6040516101e49190610b57565b60405180910390f35b600080546101fa90610d50565b80601f016020809104026020016040519081016040528092919081815260200182805461022690610d50565b80156102735780601f1061024857610100808354040283529160200191610273565b820191906000526020600020905b81548152906001019060200180831161025657829003601f168201915b505050505081565b600360009054906101000a900473ffffffffffffffffffffffffffffffffffffffff1681565b600660009054906101000a900473ffffffffffffffffffffffffffffffffffffffff1681565b34600160003373ffffffffffffffffffffffffffffffffffffffff1673ffffffffffffffffffffffffffffffffffffffff168152602001908152602001600020546103129190610be1565b600160003373ffffffffffffffffffffffffffffffffffffffff1673ffffffffffffffffffffffffffffffffffffffff16815260200190815260200160002081905550600080600290506000309050600560009054906101000a900473ffffffffffffffffffffffffffffffffffffffff1673ffffffffffffffffffffffffffffffffffffffff1663474cf53d34600760009054906101000a900473ffffffffffffffffffffffffffffffffffffffff1684876040518563ffffffff1660e01b81526004016103e393929190610a16565b6000604051808303818588803b1580156103fc57600080fd5b505af1158015610410573d6000803e3d6000fd5b50505050506000600660009054906101000a900473ffffffffffffffffffffffffffffffffffffffff1673ffffffffffffffffffffffffffffffffffffffff1663b3596f07600860009054906101000a900473ffffffffffffffffffffffffffffffffffffffff166040518263ffffffff1660e01b815260040161049491906109fb565b60206040518083038186803b1580156104ac57600080fd5b505afa1580156104c0573d6000803e3d6000fd5b505050506040513d601f19601f820116820180604052508101906104e49190610930565b9050600081141561051e577f4e487b7100000000000000000000000000000000000000000000000000000000600052600160045260246000fd5b600460009054906101000a900473ffffffffffffffffffffffffffffffffffffffff1673ffffffffffffffffffffffffffffffffffffffff1663a415bcad600860009054906101000a900473ffffffffffffffffffffffffffffffffffffffff16878688876040518663ffffffff1660e01b81526004016105a3959493929190610a76565b600060405180830381600087803b1580156105bd57600080fd5b505af11580156105d1573d6000803e3d6000fd5b5050505084600260003373ffffffffffffffffffffffffffffffffffffffff1673ffffffffffffffffffffffffffffffffffffffff168152602001908152602001600020546106209190610be1565b600260003373ffffffffffffffffffffffffffffffffffffffff1673ffffffffffffffffffffffffffffffffffffffff168152602001908152602001600020819055506000600860009054906101000a900473ffffffffffffffffffffffffffffffffffffffff1690508073ffffffffffffffffffffffffffffffffffffffff1663a9059cbb33886040518363ffffffff1660e01b81526004016106c5929190610a4d565b602060405180830381600087803b1580156106df57600080fd5b505af11580156106f3573d6000803e3d6000fd5b505050506040513d601f19601f8201168201806040525081019061071791906108de565b61072057600080fd5b7f867b23624b4dbceb1fa82a503cb5900610bd95b713d95683a52603a18120d97c34600160003373ffffffffffffffffffffffffffffffffffffffff1673ffffffffffffffffffffffffffffffffffffffff168152602001908152602001600020548489600260003373ffffffffffffffffffffffffffffffffffffffff1673ffffffffffffffffffffffffffffffffffffffff168152602001908152602001600020546040516107d5959493929190610b72565b60405180910390a1505050505050565b600460009054906101000a900473ffffffffffffffffffffffffffffffffffffffff1681565b60016020528060005260406000206000915090505481565b600560009054906101000a900473ffffffffffffffffffffffffffffffffffffffff1681565b60026020528060005260406000206000915090505481565b60008135905061087081610df1565b92915050565b60008151905061088581610e08565b92915050565b60008135905061089a81610e1f565b92915050565b6000815190506108af81610e1f565b92915050565b6000602082840312156108c757600080fd5b60006108d584828501610861565b91505092915050565b6000602082840312156108f057600080fd5b60006108fe84828501610876565b91505092915050565b60006020828403121561091957600080fd5b60006109278482850161088b565b91505092915050565b60006020828403121561094257600080fd5b6000610950848285016108a0565b91505092915050565b61096281610c37565b82525050565b61097181610c8d565b82525050565b61098081610cb1565b82525050565b61098f81610cd5565b82525050565b61099e81610cf9565b82525050565b60006109af82610bc5565b6109b98185610bd0565b93506109c9818560208601610d1d565b6109d281610de0565b840191505092915050565b6109e681610c55565b82525050565b6109f581610c83565b82525050565b6000602082019050610a106000830184610959565b92915050565b6000606082019050610a2b6000830186610959565b610a386020830185610959565b610a4560408301846109dd565b949350505050565b6000604082019050610a626000830185610959565b610a6f60208301846109ec565b9392505050565b600060a082019050610a8b6000830188610959565b610a9860208301876109ec565b610aa560408301866109ec565b610ab260608301856109dd565b610abf6080830184610959565b9695505050505050565b6000602082019050610ade6000830184610968565b92915050565b6000602082019050610af96000830184610977565b92915050565b6000602082019050610b146000830184610986565b92915050565b6000602082019050610b2f6000830184610995565b92915050565b60006020820190508181036000830152610b4f81846109a4565b905092915050565b6000602082019050610b6c60008301846109ec565b92915050565b600060a082019050610b8760008301886109ec565b610b9460208301876109ec565b610ba160408301866109ec565b610bae60608301856109ec565b610bbb60808301846109ec565b9695505050505050565b600081519050919050565b600082825260208201905092915050565b6000610bec82610c83565b9150610bf783610c83565b9250827fffffffffffffffffffffffffffffffffffffffffffffffffffffffffffffffff03821115610c2c57610c2b610d82565b5b828201905092915050565b6000610c4282610c63565b9050919050565b60008115159050919050565b600061ffff82169050919050565b600073ffffffffffffffffffffffffffffffffffffffff82169050919050565b6000819050919050565b6000610c9882610c9f565b9050919050565b6000610caa82610c63565b9050919050565b6000610cbc82610cc3565b9050919050565b6000610cce82610c63565b9050919050565b6000610ce082610ce7565b9050919050565b6000610cf282610c63565b9050919050565b6000610d0482610d0b565b9050919050565b6000610d1682610c63565b9050919050565b60005b83811015610d3b578082015181840152602081019050610d20565b83811115610d4a576000848401525b50505050565b60006002820490506001821680610d6857607f821691505b60208210811415610d7c57610d7b610db1565b5b50919050565b7f4e487b7100000000000000000000000000000000000000000000000000000000600052601160045260246000fd5b7f4e487b7100000000000000000000000000000000000000000000000000000000600052602260045260246000fd5b6000601f19601f8301169050919050565b610dfa81610c37565b8114610e0557600080fd5b50565b610e1181610c49565b8114610e1c57600080fd5b50565b610e2881610c83565b8114610e3357600080fd5b5056fea26469706673582212200eedf5d21b5e527b477e556aca6021554260d99aa1444ef973bc826eeb2df00364736f6c63430008040033",
  "immutableReferences": {},
  "source": "// SPDX-License-Identifier: MIT\npragma solidity ^0.8.4;\n\nimport '@openzeppelin/contracts/token/ERC20/IERC20.sol';\nimport './ILendingPoolAddressesProvider.sol';\nimport './ILendingPool.sol';\nimport './IWETHGateway.sol';\nimport './IPriceOracle.sol';\n\ncontract BorrowAAVE {\n    string public name = \"Borrow AAVE\";\n\n    mapping(address => uint256) public totalETHDeposits;\n    mapping(address => uint256) public totalDAIBorrows;\n\n    ILendingPoolAddressesProvider public provider;\n    ILendingPool public lendingPool;\n    IWETHGateway public wethGateway;\n    IPriceOracle public priceOracle;\n\n    address addressLendingPool;\n    address daiTokenAddress;\n    address aWETHTokenAddress;\n\n     /// @notice DepositBorrow event emitted on success\n    event DepositBorrow(\n        uint256 ethAmountDeposited, \n        uint256 totalETHDeposits,\n        uint256 priceDAI, \n        uint256 safeMaxDAIBorrow, \n        uint256 totalDAIBorrows\n    );\n\n    constructor() {\n        provider = ILendingPoolAddressesProvider(0xB53C1a33016B2DC2fF3653530bfF1848a515c8c5);\n        addressLendingPool = provider.getLendingPool();\n        lendingPool = ILendingPool(addressLendingPool);\n\n        wethGateway = IWETHGateway(0xcc9a0B7c43DC2a5F023Bb9b738E45B0Ef6B06E04);\n        \n        priceOracle = IPriceOracle(0xA50ba011c48153De246E5192C8f9258A2ba79Ca9);\n\n        daiTokenAddress = 0x6B175474E89094C44Da98b954EedeAC495271d0F;\n        aWETHTokenAddress = 0x030bA81f1c18d280636F32af80b9AAd02Cf0854e;\n    }\n\n    /// @notice Function to deposit ETH collateral into Aave and immediately borrow maximum safe amount of DAI  \n    /// @dev DepositBorrow event emitted if successfully borrows \n    function borrowDAIAgainstETH(uint safeMaxDAIBorrow) external payable {\n        totalETHDeposits[msg.sender] = totalETHDeposits[msg.sender] + msg.value;\n        // input variables\n        uint16 referralCode = 0; \n        uint256 variableRate = 2; \n        address onBehalfOf = address(this);\n\n        // Deposit the ETH sent with msg.value transfering aWETH to onBehalfOf \n        wethGateway.depositETH{value: msg.value}(addressLendingPool, onBehalfOf, referralCode);\n\n        // Use Oracle to DAI/ETH \n        uint priceDAI = priceOracle.getAssetPrice(daiTokenAddress);\n        assert(priceDAI != 0);\n\n        // Borrow the safeMaxDAIBorrow amount from protocol(calculated in frontend)\n        lendingPool.borrow(daiTokenAddress, safeMaxDAIBorrow, variableRate, referralCode, onBehalfOf);\n        totalDAIBorrows[msg.sender] = totalDAIBorrows[msg.sender] + safeMaxDAIBorrow;\n\n        IERC20 daiToken = IERC20(daiTokenAddress);\n        require(daiToken.transfer(msg.sender, safeMaxDAIBorrow));\n\n        emit DepositBorrow(\n            msg.value, \n            totalETHDeposits[msg.sender],\n            priceDAI, \n            safeMaxDAIBorrow, \n            totalDAIBorrows[msg.sender]\n        );\n    } \n\n\n}",
  "sourcePath": "/Users/doriandruidu/code/dapp-univ-challenge/src/contracts/BorrowAAVE.sol",
  "compiler": {
    "name": "solc",
    "version": "0.8.4+commit.c7e474f2.Emscripten.clang"
  },
  "schemaVersion": "3.4.16",
  "updatedAt": "2024-04-08T12:06:47.499Z",
  "networkType": "ethereum",
  "devdoc": {
    "kind": "dev",
    "methods": {
      "borrowDAIAgainstETH(uint256)": {
        "details": "DepositBorrow event emitted if successfully borrows "
      }
    },
    "version": 1
  },
  "userdoc": {
    "events": {
      "DepositBorrow(uint256,uint256,uint256,uint256,uint256)": {
        "notice": "DepositBorrow event emitted on success"
      }
    },
    "kind": "user",
    "methods": {
      "borrowDAIAgainstETH(uint256)": {
        "notice": "Function to deposit ETH collateral into Aave and immediately borrow maximum safe amount of DAI  "
      }
    },
    "version": 1
  }
}